:100000000C942A000C943F000C943F000C943F0089
:100010000C943F000C943F000C943F000C943F0064
:100020000C943F000C943F000C943F000C943F0054
:100030000C943F000C943F000C943F000C943F0044
:100040000C943F000C943F000C943F000C943F0034
:100050000C943F0011241FBECFE5D8E0DEBFCDBF1A
:1000600010E0A0E6B0E0EAE8F2E002C005900D92F0
:10007000AE3CB107D9F70E9433010C9443010C94B4
:10008000000092B39F70282F207F922B92BB9098F4
:10009000919A32E03A95F1F700C09198EFE8F1E0DB
:1000A0003197F1F700C0000022B32F70F0E18F9F6D
:1000B000C0011124822B82BB919A32E03A95F1F76C
:1000C00000C091988FE99FE00197F1F700C0000010
:1000D000089592B39F70282F207F922B92BB909A05
:1000E000919A32E03A95F1F700C09198EFE8F1E08B
:1000F0003197F1F700C0000022B32F70F0E18F9F1D
:10010000C0011124822B82BB919A32E03A95F1F71B
:1001100000C091988FE99FE00197F1F700C00000BF
:1001200008958FEF81BB8FE39CE90197F1F700C041
:10013000000083E30E94410082E30E94410088E2C4
:100140000E9441008CE00E94410086E00E94410034
:1001500081E00E9441008FE99FE00197F1F700C024
:10016000000080E80E944100089581E00E94410063
:100170008FE99FE00197F1F700C0000080E80E943E
:1001800041000895CF93DF93EC018881882331F0FB
:1001900021960E94690089918111FBCFDF91CF9157
:1001A00008951ABA87E886B980E487B908958770F8
:1001B000806487B9369A349BFECF349A8FEC97E0EF
:1001C0000197F1F700C0000084B195B10895CF9375
:1001D000DF93CDB7DEB7C054D1090FB6F894DEBFB8
:1001E0000FBECDBF80E2E0E6F0E0DE0111960190A7
:1001F0000D928A95E1F780E00E94D70080E2E0E866
:10020000F0E0DE01919601900D928A95E1F780E091
:100210000E94D7005C018E010F5D1F4FCE01019639
:100220007C01680192E2C90ED11CF8018191919183
:100230008F01A816B90639F40E94B500F701808134
:1002400091810E94C200F2E0EF0EF11C0C151D0519
:1002500061F72FEF82E597E0215080409040E1F771
:1002600000C00000D4CF0E9491000E94D10081EC18
:1002700090E00E94C20080EC0E9441000E94E700D2
:0A02800080E090E00895F894FFCFAD
:10028A00A000A200A400A600A800AA00AC00AE002C
:10029A00B000B200B400B600B800BB00BD00BF0099
:1002AA00FF03000255010001B400990085007600A1
:1002BA0062005A0053004C00440040003C003900E0
:1002CA003700380039002F003400350036002A0084
:1002DA003100320033002D004F4E0030003D002B1C
:0E02EA000050726573732041204B657900004F
:00000001FF
